{
  "contractName": "Vote",
  "abi": [
    {
      "inputs": [],
      "name": "candidate1",
      "outputs": [
        {
          "internalType": "uint256",
          "name": "",
          "type": "uint256"
        }
      ],
      "stateMutability": "view",
      "type": "function",
      "constant": true
    },
    {
      "inputs": [],
      "name": "candidate2",
      "outputs": [
        {
          "internalType": "uint256",
          "name": "",
          "type": "uint256"
        }
      ],
      "stateMutability": "view",
      "type": "function",
      "constant": true
    },
    {
      "inputs": [
        {
          "internalType": "address",
          "name": "",
          "type": "address"
        }
      ],
      "name": "voted",
      "outputs": [
        {
          "internalType": "bool",
          "name": "",
          "type": "bool"
        }
      ],
      "stateMutability": "view",
      "type": "function",
      "constant": true
    },
    {
      "inputs": [
        {
          "internalType": "uint256",
          "name": "candidate",
          "type": "uint256"
        }
      ],
      "name": "castVote",
      "outputs": [],
      "stateMutability": "nonpayable",
      "type": "function"
    }
  ],
  "bytecode": "0x608060405234801561001057600080fd5b5061040d806100206000396000f3fe608060405234801561001057600080fd5b506004361061004c5760003560e01c806301243fce146100515780633eb76b9c1461006f5780635b57014c1461008b578063aec2ccae146100a9575b600080fd5b6100596100d9565b60405161006691906102c9565b60405180910390f35b61008960048036038101906100849190610263565b6100df565b005b6100936101e6565b6040516100a091906102c9565b60405180910390f35b6100c360048036038101906100be9190610236565b6101ec565b6040516100d091906102ae565b60405180910390f35b60005481565b600260003373ffffffffffffffffffffffffffffffffffffffff1673ffffffffffffffffffffffffffffffffffffffff16815260200190815260200160002060009054906101000a900460ff16158015610144575060018114806101435750600281145b5b61014d57600080fd5b6001811415610172576000808154809291906101689061032c565b919050555061018b565b600160008154809291906101859061032c565b91905055505b6001600260003373ffffffffffffffffffffffffffffffffffffffff1673ffffffffffffffffffffffffffffffffffffffff16815260200190815260200160002060006101000a81548160ff02191690831515021790555050565b60015481565b60026020528060005260406000206000915054906101000a900460ff1681565b60008135905061021b816103a9565b92915050565b600081359050610230816103c0565b92915050565b60006020828403121561024c5761024b6103a4565b5b600061025a8482850161020c565b91505092915050565b600060208284031215610279576102786103a4565b5b600061028784828501610221565b91505092915050565b610299816102f6565b82525050565b6102a881610322565b82525050565b60006020820190506102c36000830184610290565b92915050565b60006020820190506102de600083018461029f565b92915050565b60006102ef82610302565b9050919050565b60008115159050919050565b600073ffffffffffffffffffffffffffffffffffffffff82169050919050565b6000819050919050565b600061033782610322565b91507fffffffffffffffffffffffffffffffffffffffffffffffffffffffffffffffff82141561036a57610369610375565b5b600182019050919050565b7f4e487b7100000000000000000000000000000000000000000000000000000000600052601160045260246000fd5b600080fd5b6103b2816102e4565b81146103bd57600080fd5b50565b6103c981610322565b81146103d457600080fd5b5056fea2646970667358221220957fcca4f6f4f4b104b81040a83484461a1bef5c37711dfefbad9926fb47225a64736f6c63430008060033",
  "immutableReferences": {},
  "source": "// SPDX-License-Identifier: UNLICENSED\r\npragma solidity 0.8.6;\r\n\r\n contract Vote {\r\n\r\n     uint public candidate1;\r\n     uint public candidate2;\r\n     mapping (address => bool) public voted;\r\n\r\n     function castVote(uint candidate) public  {\r\n         require(!voted[msg.sender] && (candidate == 1 || candidate == 2));\r\n         if(candidate == 1){\r\n             candidate1++;\r\n         }else{\r\n             candidate2++;            \r\n         }\r\n         voted[msg.sender] = true;\r\n     }\r\n }",
  "sourcePath": "G:\\Projets\\NFT\\scribble_nft\\contracts\\Vote.sol",
  "compiler": {
    "name": "solc",
    "version": "0.8.6+commit.11564f7e.Emscripten.clang"
  },
  "schemaVersion": "3.4.2",
  "updatedAt": "2021-08-08T08:03:52.130Z",
  "networkType": "ethereum",
  "devdoc": {
    "kind": "dev",
    "methods": {},
    "version": 1
  },
  "userdoc": {
    "kind": "user",
    "methods": {},
    "version": 1
  }
}